:200000003031313131303030303030303030303030303030303030303030303030303030DC
:200020000A30313131313030303130303031303030303131313130313030303031303031D9
:20004000300A303131313131313031313130313030303030303030303030303030303030BC
:2000600031300A30313131313031303030313030303030303030303030303030303030309F
:200080003030310A303130313031313031303130303030303030303030303030303030317E
:2000A000313031300A30313131313131303031313130303030303131313130313030303056
:2000C00031303031300A303130313031313030303030303030303030303030303030303040
:2000E0003130303031310A313131313130303030303030303030303030303030303030301E
:20010000303030303030300A31313131313030303030303030303030303030303030303000
:2001200030303030303030300A3031313031303030303030313030303030303030303030E1
:200140003030303030303030300A30313130313030303030303131303030303030303030C0
:20016000303030303030303030310A3031303131303031303030313130303030303030309E
:2001800030303030303031313130310A31313131313030303030303030303030303030307C
:2001A0003030303030303030303030300A3131313131303030303030303030303030303060
:2001C000303030303030303030303030300A3031313131303030313030303130303030303F
:2001E00030303030303030303030303030310A30313131313030303130303030303030301F
:200200003030303030303030303030303030300A30313131313031303030313030303030FE
:20022000303030303030303030303030303030310A303130313031313031303130303030DD
:2002400030303030303030303030303031313031300A3131313131303030303030303030BC
:200260003030303030303030303030303030303030300A313131313130303030303030309F
:20028000303030303030303030303030303030303030300A31303030303030303030303083
:2002A00030303030303030303030303030303030303131310A31313131313030303030305C
:2002C0003030303030303030303030303030303030303030300A313131313130303030303F
:2002E000303030303030303030303030303030303030303030300A3131313131303030301F
:2003000030303030303030303030303030303030303030303030300A3031313131313131FC
:200320003131313131303030303030303030303030303030303030310A30313131313031D8
:20034000303031313130303030303030303030303030303030303030310A303131313130BB
:2003600030303131313130303030303131313130313030303031303031300A303131313194
:200380003030303130303030303030303030303030303030303030303030300A303131317F
:2003A000313030303131313130303030303131313130313030303031303031300A31303056
:2003C00030303030303030303030303030303030303030303030303030303131310A31313E
:2003E0003131313030303030303030303030303030303030303030303030303030300A311F
:20040000313131313030303030303030303030303030303030303030303030303030300AFE
:200420003131313131303030303030303030303030303030303030303030303030303030B7
:010440000AB1
:00000001FF
