:200000003031303031313030303131303131313130313131303031303031313030313031CF
:200020003031313031313031303031303030303030313130313030313031313130303030B3
:20004000303131313030313130313131303130313031313031313031303031303030303090
:2000600030313130303130303031313031313131303131303131303030313130313131316D
:20008000303131313030313030303130303030303031313130303131303131303130303152
:2000A000303131313031303030303130303030303031313030303031303131303131303133
:2000C000303131303031303130313131303130303030313031313030303031303030303014
:2000E0003031313030303131303131303131313130313130313131303031313130303131EC
:200100003031313030313031303131303030313130313131303130303031313030313031CF
:200120003031313130313030303131313031303130313131303031303030313030303030B1
:20014000303131303030303130313130303130303031313031303031303131313030303092
:2001600030313130313030313031313130303131303131303030313130313130313030316E
:20018000303131303131313030313130303131313030313030303030303131303031303150
:2001A00030313130313130303031313031303031303131313031303030303130313131302F
:2001C000303031303030303030313030303130303031313031313131303131303131313011
:2001E0003031313030313031303131303030313130303130303030303031313030313031F2
:200200003031313030313131303131303031303130313131303130303030313030303030D0
:200220003031313031313031303131303031303130313131303130303031313130313031AC
:2002400030313131303031313030313030303030303131303031303130313130303131318F
:20026000303131303031303130313131303130303030313030303030303131313030313071
:2002800030313130313030313031313130303131303131313031303130313131303031314B
:2002A000303031303030303030313131303031313031313030303031303131303031313130
:2002C00030313130313030313031313130313030303131313031303030313130313030310E
:2002E0003031313130303131303031303030303030313131303031313031313030303131EF
:200300003031313030313031303131303131303030313130303130313031313130303130CD
:200320003031313031303031303131313030313130313131303030313031313130313031AB
:2003400030313130303130313030313030303030303131303031303130313131303130318F
:2003600030303130303030303031313030313031303131303031313130313130303130316F
:20038000303131313031303030303130303030303031313031313031303131303030303150
:2003A00030313130303131313031313031313130303131303030303130303130313131302C
:2003C000303031303030303030313030313030313031313031313130303131313031303010
:2003E0003031313030313031303131303031313130313130303130313031313130303130EC
:200400003030313030303030303131313030313030313130313030303031313031313131CE
:200420003031313031313130303131303030313130313131303130313031313130303131A9
:2004400030303130303030303031313130313130303131303031303130313130313130308E
:2004600030313130313030313031313130313030303031303030303030313130313030316F
:2004800030313130313131303030313030303030303131303030303130313130313130304F
:2004A00030313130313030313031313130303031303131313031303130313130303030312C
:2004C00030313130313130313030313030303030303131313030303030313130313131310D
:2004E0003031313130303131303131313031303130313130303130313031313130303130EA
:200500003031313030313031303031303131313030303130303030303031303130303030D0
:200520003031313031303030303131303030303130313131303031313031313030313031AC
:20054000303131303131303030313130313130303031313130313031303131313030313189
:2005600030303130303030303031313130313130303131303030303130313131303031306E
:2005800030313130313030313031313130313031303131313030313130303130303030304C
:2005A00030313130303130313031313130313030303031303030303030313130313130302E
:2005C000303131303131313130313131303031303031313030313031303131303131303108
:2005E0003030313030303030303131313031313030313130313030313031313130313030ED
:200600003031313030303031303131303031303130303130303030303031313030313030CF
:200620003031313031303031303131303030313130313131303130303031313130313031A9
:2006400030313130313130313030313031313130303031303030303030313030303030318E
:2006600030313130303130313031313031313130303131303031303130313130303030316A
:2006800030313130313131303030313030303030303131313030303030313131303130314C
:2006A000303131303131303030313131303131303031313031303031303131303131313028
:2006C00030313130303030313031313130303130303031303030303030313130303130310E
:2006E0003031313031313030303131303130303130313131303130303030313030303030ED
:200700003031313130303131303131303130303130313131303130303030313030303030CB
:200720003031313030303031303131303131303130313130303130313031313130313030A9
:2007400030303130303030303031313030313031303131313031303130313130313030318B
:20076000303131313030313130313130313130313031313031313131303131303031303066
:2007800030303130303030303031313030313031303131303131303030313130303130314C
:2007A000303131303131303130313130303130313031313031313130303131313031303027
:2007C00030313131303130313031313031313031303031303131313030303130303030300A
:2007E0003031303030303031303131303031303130313130313131303031313030313031EA
:200800003031313030303031303131303131313030303130303030303031313031303031CB
:200820003031313031313130303031303030303030313130313130313031313031313131A7
:20084000303131303131303030313130313130303031313031303031303131313030313187
:2008600030303130303030303031313031313130303131303130303130313130303031306B
:2008800030313130313030303030313031313030303031303030303030313131303031314C
:2008A00030313130303130313031313030313030303031303030303030313131303030302D
:2008C000303131313030313030313130303130313031313130313030303131303130303108
:2008E0003031313130313031303131303131303130303130303030303031313031313131E7
:200900003031313030313030303131303130303130313130313131313030313031313130C6
:200920003030313030303030303130303131313030313130303030313031313031313031AA
:20094000303031303030303030313131303031313031313031303031303131313031303089
:2009600030303130303030303031313030303031303131303131303130313130303130316A
:2009800030313131303130303030313030303030303131303131303130313130303030314A
:2009A000303131303031313130313130313131303031313030303031303031303030303029
:2009C000303131313030303130313131303130313031313031303031303131313030313105
:2009E0003030313030303030303131313030313130313130303130313031313031313031E8
:200A00003030313030303030303131313031303030313130303130313031313031313031C8
:200A20003031313130303030303131313031303130313131303031313030313030303030A8
:200A4000303131313030313130313130313131313031313030313030303131303030303185
:200A6000303131303131303030313130303130313031313130303131303031303030303068
:200A8000303131303130303030313130303130313031313031313130303131303031303047
:200AA000303131313030313030313130303130313031313130303130303131303130303126
:200AC000303131313031303030303130303030303031313130313031303131313031303008
:200AE0003030313030303030303131303130313030313131303130313031313130303131E7
:200B00003031313130313030303131303131313130303130313131303030313030303030C6
:200B20003031303031313130303131313031303130313130313130303031313031313030A4
:200B4000303131303030303130313130313130313030313030303030303131313031303187
:200B6000303131303131303030313131303130303031313130303130303131303130303165
:200B8000303131303030313130313130303130313031313130303131303031303030303047
:200BA000303131303131313030313130313030313031313130303131303131303131303023
:200BC000303031303030303030313131303131303031313030313031303131303131303007
:200BE0003030313030303030303131303131313030313131303130313031313031313030E6
:200C00003031313031313030303131303030303130303130303030303031313130313030C8
:200C20003031313031303031303131303131313030313130303031313031313031303031A3
:200C4000303131303031303030313131303130313031313031313130303131313031303083
:200C600030303130303030303031313030313030303131303030303130313131303030306A
:200C8000303131303130303130313130303031303031313130313031303131313030313143
:200CA000303031303131313030303130303030303031303130303031303131313031303127
:200CC000303131303130303130313131303031313031313130303031303131313031303102
:200CE0003031313030313031303031303030303030313131303031303031313031303030E8
:200D00003031313031313131303131303131313030313130303031313031313130313031BF
:200D20003031313130303131303031303030303030313131303131303031313030313031A4
:200D4000303131313030313130313131303130303031313031303031303131303030313083
:200D6000303131313031303130313130313130303031313130313031303131303131303160
:200D8000303031303030303030313130303130313031313031313030303131303130303146
:200DA000303131313031303030303130303030303031313030313031303131313031303125
:200DC000303031303030303030313030313130303031313031313131303131313030313005
:200DE0003031313030313031303131303131303130303130303030303031313031303031E5
:200E00003031313130303030303131313030313130313131303130313031313031313031C0
:200E20003030313031313130303031303030303030313031303030313031313130313031A5
:200E4000303131303130303130313131303031313031313130303031303131313031303180
:200E6000303131303031303130303130303030303031313030313031303131313031303065
:200E8000303031303030303030313130303031303031313031313030303131303030303147
:200EA000303131303131313030313130303130303031313031303031303131313031303022
:200EC000303031303030303030313130313130303031313030313031303131303131313103
:200EE0003030313031313130303031303030303030313031303030303031313030313031E7
:200F00003031313031313030303131303131303030313130303130313031313031313130C0
:200F20003031313130313030303131303031303130313131303031313031313130303031A0
:200F4000303131313031303130313130303130313030313030303030303131303030313183
:200F600030313130313131313031313031313130303131313030313130313130303130315D
:200F8000303131313030303130313131303130313031313030303031303131313031303041
:200FA000303031303030303030313131303031313031313031303031303131313031303023
:200FC000303031303030303030313130303030313031313031313031303131303031303104
:200FE0003031313130313030303031303030303030313130313131313031313030313030E3
:201000003031313031303031303131303131313130303130303030303031313031313130C0
:201020003031313030313031303131303030313130303130303030303031313130313130A2
:20104000303131303030303130313131303031303031313031303031303131313031303180
:20106000303131313030313130303130313131303030303031303130303130303031303063
:2010800030313130313131313031313031313130303131303031303130313130303031313D
:2010A000303031303030303030313130313130303031313130313031303131303030313122
:2010C0003031313130313030303131313031303130313131303031313030313031313030FF
:2010E0003030313030303030303131303131303030313130313131313031313130303130E1
:201100003031313030313031303131303131303130303130303030303031313030313031C1
:201120003031313130313030303031303030303030313130313030313031313030303031A3
:2011400030313130303031313031313130313031303131303131303030313130313030317E
:20116000303131313030313130303130303030303031313130303130303131303130303062
:2011800030313130313131313031313031313130303131303030313130313131303130313B
:2011A000303131313030313130303130313130303030313030303030303131313031303022
:2011C0003031313130313031303131313030313030313131303030303031313031303031FF
:2011E0003031313130303131303031303030303030313131303030303031313130313031E1
:201200003031313130303130303131313031303130313131303031313030313030303030BF
:2012200030313131303030303031313031313131303131313030313030313131303130309D
:2012400030313131303130303031313031303031303131313031303030313130313131317C
:20126000303131313030313030303130303030303031313030313031303131303131303061
:20128000303131303130303130313131303130303030313031313030303031303030303042
:2012A000303131303131313030313130303130313031313030303131303031303030303020
:2012C0003031313030303031303131313031303130313130303031313031313130313030FE
:2012E0003031313031313131303131313030313030303130303030303031313031303031DF
:201300003031313130303030303131313030313130313131303130313031313031313031BB
:201320003030313030303030303131303131313030313130313030313031313030303130A0
:20134000303131303130303030303130303030303031313031313130303131303031303180
:2013600030313130303031313030313030303030303131303131303130313130303130315F
:2013800030313131303130303031313130313031303131313030313130303130313131303B
:2013A00030303130303030303031303130303131303131313031303130313131303031311E
:2013C0003031313130303030303131303031303130313130313131303031313030313030FE
:2013E0003031313031303031303131313030313130313131303031313031313030313031DB
:201400003030313030303030303131303031303130313131303130303030313030303030C2
:2014200030313130303131303031313030313031303131303131303030313130313030319C
:2014400030313131303031313030313030303030303131313030313130313130303130317D
:2014600030313130303130303030313030303030303131313031303130313131303031305F
:20148000303131303131313030313130303030313030313030303030303131303030303140
:2014A000303131313031303130313130303031313031313130313030303131303131313119
:2014C0003031313130303130303031303030303030313130303131313031313130303130FE
:2014E0003031313030303031303131313031313030313130313030313031313030313030DD
:201500003031313030303031303031303030303030313130303030313030313030303030C3
:2015200030313131303130313031313130313030303031303030303030313130303131309D
:2015400030313130303130313031313031313030303131303130303130313131303031317A
:20156000303031303131313030303130303030303031303130303030303131313030313060
:2015800030313130303030313031313030313031303131313030313130313130303130313B
:2015A00030313130313131303031313130313030303031303030303030313131303130311C
:2015C0003031313031313030303131303131303030313130303030313031313031313031FB
:2015E0003031313030303131303131303131313130313131303031303031313130303030DA
:201600003031313030313031303131313030313030303130303030303031313130303030BE
:20162000303131303131313130313131303031303031313130313030303131303030303199
:2016400030303130303030303031313130303030303131313031303130313131303031307D
:2016600030313131303130313031313130303131303031303131303030303130303030305C
:20168000303131313030303130313131303130313031313031303031303131313030313138
:2016A00030303130303030303031313130303030303131303131313130313131303031301C
:2016C0003031313130313030303131313031303030313130313030313031313130313030FA
:2016E0003031313031313131303131313030313030303130303030303031313031313030DB
:201700003031313031313131303131313030313030313130303130313031313031313031B6
:2017200030303130303030303031313031313030303131303030303130313130313131319B
:20174000303131313030313030313130303130313031313030313031303131313031303079
:2017600030303130303030303031313130303031303131313031303130313130313030315B
:2017800030313131303031313030313031313130303031303030303030313030313130303C
:2017A000303131303131313130313131303031303031313030313031303131303131303116
:2017C0003030313030303030303131303130303130313131303030303031313130303131FC
:2017E0003031313130313031303131303131303130303130303030303031313030313030DB
:201800003031313031313131303131303131303030313130313131313031313130303130B4
:2018200030303130303030303031313130303131303131303130303130313131303130309A
:2018400030303130303030303031313030303031303131303131303130313130303130317B
:2018600030313131303130303030313031313030303031303030303030313130303031315C
:20188000303131303131313130313130313131303031313130303131303131303031303134
:2018A000303131303030313130313131303130303031313030313031303131313031303018
:2018C0003031313130313031303131313030313030303130303030303031313030303031FB
:2018E0003031313030313030303131303130303130313131303030303031313031303031DA
:201900003031313130303131303131303030313130313130313030313031313031313130B5
:20192000303131303031313130303130303030303031313030313031303131303131303099
:2019400030313130313030313031313130313030303031303131313030303130303030307A
:2019600030313030313131303031313030303031303131303131303130303130303030305A
:20198000303131313031313030313130303130313031313031313030303031303030303039
:2019A000303131303031303030313130313131313031313031313030303131303131313114
:2019C0003031313130303130303031303030303030313131303030313031313130313031F9
:2019E0003031313031303031303131313030313130303130303030303031313030313030DA
:201A00003031313031303031303131303030303130313130313130313030313030303030B9
:201A2000303131303031303130313130313130303031313030313031303131303130303196
:201A4000303131303031313030313130303130313031313031313130303131303031303076
:201A6000303031303030303030313130313130303031313030303031303131303131313158
:201A8000303131313030313030313130303130313031313030313031303131313031303036
:201AA00030303130313131303030313030303030303130303131303130313130303030311A
:201AC0003031313130313031303131313030313030313130313030313031313130303131F4
:201AE0003030313030303030303131303130303130313130303030313031313030303131DA
:201B00003031313130313031303131303131303030313130313030313031313130303131B3
:201B200030303130303030303031313030313031303131313130303030303130303030309B
:201B4000303131303030313130313131303130313031313130303130303131313030313173
:201B6000303131313031303130313131303031313030313030303030303131303131303056
:201B8000303131303031303130313130303031313031313130313030303131313031303134
:201BA000303131313030313130303130303030303031313031313031303131303131313114
:201BC0003031313031313030303131303031303130313131303031313031313130313030F4
:201BE0003031313031303031303131303031303130303130303030303031313031313030D8
:201C00003031313030303031303131303131313130313131303031303031313030313031B3
:201C2000303131303031303130313131303130303030313031313130303031303030303097
:201C4000303130313031313030313130303130313031313130303131303131313031303073
:201C6000303131303130303130313130303031303031313130313031303131303131303054
:201C8000303131313031303130313130313130313030313030303030303131313031303134
:201CA000303131303131303030313131303130303031313130303130303131303130303114
:201CC0003031313030303131303131303130303130313130303130313031313130303131F3
:201CE0003030313031313030303031303030303030313130303130313031313031313130D7
:201D00003031313031303031303131303131303130303130303030303031313130303131B4
:201D2000303131303031303130313130303130303030313030303030303131313031303196
:201D4000303131303131303030313131303130303031313130303130303131303130303173
:201D6000303131303030313130313130303130313031313130303131303031303030303055
:201D8000303131313031303130313130313130303031313130313030303131313030313032
:201DA000303131303130303130313130303031313031313031303031303131303031303113
:201DC0003031313130303131303031303131303030303130303030303031313031313130F5
:201DE0003031313031303031303131303030313030313130313030303030313030303030D8
:201E00003031313130313030303131313031303130313131303031303031313130303030B2
:201E2000303131303130303130313131303031313030313030303030303131303130303194
:201E4000303131303131313030313131303130303031313030313031303131313030313071
:201E6000303131303031303030313131303130313031313031313031303031303030303054
:201E8000303131303031303130313131303031303031313030303031303131313031303033
:201EA000303031303131303030303130303030303031313130313130303131303031303115
:201EC0003031313031313030303031303030303030313131303131303031313030313031F4
:201EE0003031313031303030303131303130303130313130303031313031313130313031D2
:201F00003031313031313030303131303030303130303130303030303031313031313130B4
:201F2000303131313031303130313130313130303031313031313030303131303030303191
:201F4000303031303030303030313131303031303031313031303031303131313030313173
:201F6000303131313031303130313131303031313030313030303030303131313030303053
:201F8000303131303031303130313130313130303031313031313030303131303031303131
:201FA00030313130313131303031313130313030303131303031303130313131303031310F
:201FC0003031313130303031303131313031303130313130303130313030313030303030F3
:201FE0003031313030313031303131313030313030313130313131313031313130303131CE
:202000003030313031313130303031303030303030313031303030313031313130313031B3
:2020200030313130313030313031313130303131303131313030303130313131303130318E
:20204000303131303031303130303130303030303031313130313130303131303130303172
:20206000303131313031303030313130303030313031313030313031303031303030303054
:20208000303131313031303030313130303130313031313031313030303131303131303030
:2020A000303131313031303130313131303031313030313030303030303131313030313110
:2020C0003031313030303131303131303031303130313130313130303031313030313031F0
:2020E0003031313130303130303131303130303130313131303031313031313130303031CF
:202100003031313130313031303131303031303130303130313130303030313030303030B2
:20212000303131303030303130313130313130303031313031303031303131313030303190
:20214000303131313031303130313130303030313031313031313031303031303030303071
:2021600030313130303131303031313030313031303131303131303030313130313030314F
:20218000303131313030313130303130303030303031313031303031303131303031303032
:2021A000303031303131303030303130303030303031313031313131303131313030313011
:2021C0003031313031313130303131303030303130313131303031303031313030313031EF
:2021E0003030313030303030303131303131313030313130313030313031313030303130D2
:202200003031313031303030303031303131313030303130303030303031303130303131B2
:20222000303131303031303130313130303130303030313030303030303131303031313191
:2022400030313131303031303031313030303031303131313031313030313130313030316E
:20226000303131303031303030313130303030313030313030303030303131303030313153
:20228000303131303131313130313130313130313031313031313031303131303131313128
:2022A00030313130303130303031313031313131303031303030303030313131303131300F
:2022C0003031313031313131303131303131303030313131303130313031313130313030EB
:2022E0003031313130303030303131303030303130313131303130303030313031313130D0
:202300003030313030303030303130303131313030313130303030313031313031313031B0
:20232000303031303030303030313130303130313031313031313030303131303031303190
:2023400030313130313130313031313030313031303131303131313030313131303130306B
:2023600030313131303130313031313031313031303031303030303030313130303131304E
:2023800030313130303030313031313130313031303131303030313130313130313030312D
:2023A00030313130303031303031313130313031303131313030313130303130303030300F
:2023C0003031313130313031303131313030313030313130313131303031313030303031EC
:2023E0003030313031313030303031303030303030313131303131303031313031303031D0
:202400003031313130313030303131303030303130313130303130313030313030303030B0
:2024200030313130303130313031313030313131303131303031303130313131303031318A
:2024400030313131303130303031313030303031303131313030313130303130303030306F
:2024600030313130313130313031313030303031303131313030313130313131303031314A
:20248000303131303030303130303130303030303031313030313130303131303130303130
:2024A00030313130313131303031313031303031303131303030313030313131303130310B
:2024C0003031313130303131303031303030303030313130313030313031313031313130ED
:2024E0003030313031313130303031303030303030313031303030303031313031303030D2
:202500003031313030303031303131313030313130313130303130313031313031313030AB
:2025200030313130313130303031313130313031303131313030313130303130303030308C
:2025400030313131303130313031313130313030303031303030303030313130313131306C
:2025600030313131303130313031313031313030303131303131303030313130303030314B
:2025800030303130303030303031313031313131303131313030313030313130303031312C
:2025A000303131303130303130303130313131303030313030303030303130313030303010
:2025C0003031313031303030303131303030303130313131303031313031313030313031EC
:2025E0003031313031313030303131303131303030313131303130313031313130303131C9
:202600003030313030303030303131313030303130313131303130313031313031303031AC
:2026200030313131303031313030313030303030303131313031303030313131303031308C
:20264000303131303130303130313131303031313031313130313030303131303130303169
:2026600030313131303030313031313130313031303131303031303130303130303030304C
:20268000303131303131303130313130303030313031313030313131303131303131313028
:2026A000303131303030303130303130313131303030313030303030303130303030303110
:2026C0003031313030313031303131303131313030313130303130313031313030303031EA
:2026E0003031313031313130303031303030303030313131303131303031313031303031CB
:202700003031313130313030303131303030303130313130303130313030313030303030AD
:2027200030313130313130303031313030303031303131303030313130313130313030318A
:2027400030313130313131303031313031303031303131303030303130303130303030306C
:20276000303131313030313030313130313030313031313130303131303131313031303147
:2027800030313131303031313030313031313130303031303030303030313031303131302B
:2027A000303131303031303130313131303031313031313130313030303131303130303108
:2027C0003031313030303130303131313031303130313130313130303031313130313031E8
:2027E0003031313031313031303031303030303030313130303030313031313031313130CB
:202800003031313130313030303131303031303130303130303030303031313031303031AB
:20282000303131313030303030313131303031313031313130313031303131303131303186
:2028400030303130303030303031313130303030303131313030313030313130313030316C
:20286000303131303131303130313130313030313031313130303131303031303030303049
:2028800030313130313030313031313031313130303031303030303030313130303131302A
:2028A000303131303030303130313131303130313031313030303131303131303130303108
:2028C0003031313030303130303131313031303130313131303031313030313030303030EA
:2028E0003031313031313131303131313030313030313130303031313031313031303031C6
:202900003030313030303030303131303131303030313131303130313031313030303131A9
:20292000303131313031303030313131303130313031313130303131303031303030303088
:20294000303131303031303130313131303130303030313030303030303131313031303169
:20296000303131303131303030313131303130303031313130303130303131303130303147
:20298000303131303030313130313130303130313031313130303131303031303030303029
:2029A000303131313030303030313130313131313031313130303131303131313031303104
:2029C0003031313030313031303131313030313030313130303130313030313030303030EA
:2029E0003031313030303131303131313031303130313130303031303031313031303031C7
:202A00003031313031313030303131303130303130313130303030313030313030303030AA
:202A2000303130303030313130313131303130313031313130303130303131303030303187
:202A4000303131303031303130303131313031313030313030303030303130313030313168
:202A600030313130303130313031313030313030303031303030303030313130303131304A
:202A8000303131303030303130313130303031313031313031303031303131303131303027
:202AA000303131303130303130313131303031313031313031303031303131313030313104
:202AC0003030313030303030303131303030303130303130303030303031313031313031EC
:202AE0003031313030303031303131313030313130313131303031313031313030303031C6
:202B00003030313030303030303131303130303130313130313131303030313030303030AA
:202B2000303131313031313030313130303130313031313031303030303131303130303185
:202B4000303131303030313130313131303130313031313031313030303131303030303165
:202B6000303031303131313030303130303030303031303031313130303131313031303147
:202B8000303131303131303030313130313130303031313030303031303031303030303029
:202BA000303131313030303030313130313131313031313130303131303131313031303102
:202BC0003031313030313031303131313030313030313130303130313030313030303030E8
:202BE0003031313030303031303131313030313030313130303031313031313130313031C5
:202C00003030313030303030303131303131303130313130303130313031313130313030A6
:202C2000303131313031303130313131303031313030313031313030303031303030303086
:202C4000303131313031313030313130303130313031313031313030303031303030303066
:202C6000303131303030313130313130313131313031313031313130303131313031313040
:202C8000303131303030303130313130313130303031313031313030303131303130303125
:202CA000303131313030313130303130303030303031313031313030303131303031303106
:202CC0003031313030303131303131313031303030313131303130313031313130303131E2
:202CE0003030313030303030303131313030303030313130313131313031313130303130C6
:202D00003031313130313030303131313031303030313130313030313031313130313030A3
:202D2000303131303131313130313131303031303030313030303030303131303031303184
:202D4000303131303031313130313130303130313031313130313030303031303131313062
:202D6000303030303130313030313031303131303031313030313031303131313030313144
:202D8000303131313031303030313130313030313031313030303130303131313031303123
:202DA000303131303131303030313131303130313031313031313031303031303030303004
:202DC0003031313031313030303131313031303130313130303031313031313130313030E2
:202DE0003031313130313031303131313030313130303130303030303031313031313130C3
:202E00003031313031303031303131313030313130313130313030313030313030303030A4
:202E2000303131303031303130313131303130303030313030303030303131303031303185
:202E4000303131313030313130313131303130303030313030303030303131313031313063
:202E6000303131313031303130313130313130303031313130303030303131313031303141
:202E8000303131313031303030313130303030313031313130313030303131303031303123
:202EA000303031303131303030303130303030303031313030313031303131313031303006
:202EC0003030313030303030303131313030303030313130313030303031313030303031E8
:202EE0003031313130303130303131303031303130313131303130303031313130303130C2
:202F00003031313030303031303031303030303030313130313031303031313130313031A4
:202F2000303131313030313130313131303130303031313031313131303031303030303081
:202F4000303131313031303030313130313030313031313031313130303131303030313160
:202F6000303131303130303130313130303130303031313130313031303131303131313040
:202F8000303131313031303030303130313131303030313030303030303130303030303126
:202FA000303131303131303030313130313030313031313130303031303131313031303100
:202FC0003031313030303031303131303131303130303130303030303031313030303031E5
:202FE0003031313031313130303131313031303030313130303130313030313030303030C3
:2030000030313131303030313031313130313031303131303030303130313130313130319F
:20302000303031303131303030303130303030303031313030303031303131303131303085
:2030400030313130313030313031313130303031303131313031303130313130303130315F
:20306000303131313031303030303130303030303031313030313031303131313031303043
:20308000303031303030303030313131303030303031313031313030303131303030303125
:2030A000303131303030313130313130303130313031313130303130303131303030303101
:2030C0003031313130313030303031303030303030313131303031313031313030303131E2
:2030E0003031313030313031303131303131303030313130303130313031313130303130C0
:2031000030313130313030313031313130303131303131313030303130313131303130319D
:20312000303131303031303130303130313130303030313030303030303131303030313084
:20314000303131303131303030313130303030313031313031313130303131303031303060
:20316000303131303130303130313131303130303030313030303030303131303130303142
:20318000303131303131313030303130303030303031313030313031303131313030313021
:2031A0003031313031313131303131313030313130303130313131303030313030303030FF
:2031C0003031303030303031303131303031303130313130313131303031313030313031E0
:2031E0003031313030303031303131303131313030303130303030303031313130313031C1
:203200003031313130313030303031303030303030313131303130313031313031313030A0
:2032200030313131303130303031313130303130303131303130303130313130303031317E
:2032400030313130303130313031313130303131303031303030303030313130313130315F
:20326000303131303130303130303130313130303030313030303030303131303031303142
:20328000303131313031303030303130303030303031313030303031303131313031303121
:2032A0003031313030303131303131313031303030313130313131313031313130303130FC
:2032C0003030313030303030303131303131303130313130303030313031313030313131E0
:2032E0003031313031313130303131303030303130303130313131303030313030303030C1
:2033000030313030313130313031313031313131303131313030313030313130303031309C
:2033200030313130313030313030313030303030303131313030313130313130303130317F
:20334000303131303031303030303130303030303031313030313030303131303131313160
:2033600030313130313130303031313031313131303131313030313030303130303030303E
:2033800030313131303031303031313031303030303131303131313130313130313131301B
:2033A0003031313030303131303131313031303130313131303031313030313030303030FE
:2033C0003031313031313130303131303031303130313131303030313031313130313031DB
:2033E0003031313030313031303031303030303030313130303031313031313031313131BE
:2034000030313130313131303031313130313130303131303030303130313130313130309B
:2034200030313130313130303031313031303031303131313030313130303130303030307E
:2034400030313130303030313031313031313030303131303130303130313131303030315D
:2034600030313131303130313031313030303031303131303131303130303130313131303B
:20348000303031303030303030313030303130303031313130313031303131303130303120
:2034A0003031313130303131303031303030303030313130313030313031313030313030FF
:2034C0003030313030303030303131303131313130313131303031303031313030303131DD
:2034E0003031313031303031303031303030303030313130313030313031313030313030C0
:2035000030303130303030303031313031313030303131303031303130313130313131319C
:2035200030303130303030303031313130313030303131303031303130313130313130317D
:2035400030313131303030303031313130313031303131313030313130303130303030305D
:20356000303131303030313130313130313131313031313031313130303131303031313137
:2035800030313131303130313031313030313031303031303131313030303130303030301D
:2035A0003031303130303030303131313030313030313130313131313031313031303031FB
:2035C0003031313031313130303031303030303030313130303131303031313030303031DE
:2035E0003031313130313031303131303030313130313130313030313031313030303130BB
:2036000030313131303130313031313130303131303031303131303030303130303030309C
:2036200030313130303130303031313031303031303131303030303130313130313130317B
:20364000303031303030303030313130303130313031313130313030303031303030303060
:20366000303131303131303030313130313131313031313030303130303131303131313137
:20368000303131313030313030313131303130303031313031303031303131313030313119
:2036A0003030313030303030303131303131313130313131303031303031313031313130FA
:2036C0003031313030303031303131313030313030313130303130313030313031313030DC
:2036E0003030313030303030303131313031303030313130313131313031313130303130BB
:2037000030313131303130303031313031313131303131313030313030303130303030309A
:20372000303131303131303030313130313030313031313030313131303131313031303177
:2037400030313130313130303031313030303031303031303030303030313131303131305C
:20376000303131303031303130313131303031313031313130313030303131303130303138
:20378000303131303030313030313131303130313031313031313030303131313031303118
:2037A0003031313031313031303031303030303030313130313130313031313030303031FB
:2037C0003031313130313031303131313030313030313130313030313031313130303131D7
:2037E0003030313031313030303031303030303030313131303030313031313130313031BC
:20380000303131303130303130313131303031313030313030303030303131313031313099
:20382000303131303031303130313130313131303031313030313031303131303131313076
:20384000303131303030303130313131303130303031313031303031303131313030313158
:20386000303031303030303030313130313130303031313031313131303131313030313039
:2038800030313130303130313031313031313031303031303030303030313130303130311A
:2038A0003031313130303131303131313031303030303130303030303031313130313031F9
:2038C0003031313130313030303031303030303030313131303130303031313030313031DB
:2038E0003031313031313030303131303131303030313131303130313031313130303131B6
:2039000030303130313131303030313030303030303130313031313030313130303130319A
:20392000303131313030313130313131303130303031313031303031303131303030313077
:20394000303131313031303130313130313130303031313130313031303131303131303154
:2039600030303130303030303031313030313031303131313031303030303130303030303D
:2039800030313130313130313031313031303031303031303030303030313130303030311A
:2039A0003031313030303131303031303030303030313130313131303031313031303031F9
:2039C0003031313030303130303131303130303030303130303030303031313030303131DC
:2039E0003031313031313131303131303131313030313131303031313031313030313031B3
:203A0000303131313030303130313131303130313031313030303031303131313031303096
:203A2000303031303030303030313130313130303031313130313031303131303030313178
:203A4000303131313031303030313131303130313031313130303131303031303030303057
:203A6000303131303130303130313130313131303030313030303030303131303130303138
:203A800030313130303130303030313030303030303131313030313130313130303030311A
:203AA0003031313130303030303131303130303130313130303130313031313031313130F6
:203AC0003030313031313130303031303030303030313030303130303031313130313031DA
:203AE0003031313031303031303131313030313130303130303030303031313030313031B8
:203B0000303131313031303030303130303030303031313130313130303131303031303197
:203B2000303131303130303030313130313030313031313030303131303131313031303175
:203B4000303131303131303030313130303030313030313030303030303131303131303059
:203B6000303131303130303130313130303031303031313030313031303131313030313036
:203B8000303131303131313130303130313130303030313030303030303131313030313116
:203BA0003031313031303031303131313031303030303130303030303031313030303031F9
:203BC0003031313031313031303131303031303130313131303130303030313030303030D7
:203BE0003031313130313030303131303130303130313130313131303031313030303131B4
:203C0000303131303130303130313130303130303031313130313031303131303131313093
:203C2000303131313031303030303130303030303031313031313030303131303130303177
:203C4000303131303030313030313130303130313031313130303130303131303131313153
:203C6000303031303131313030303130303030303031303031313031303131303030303138
:203C8000303131303031303130313130303031313031313030313031303131303131313013
:203CA0003031313030303031303131313030313130303130303030303031313031303031F7
:203CC0003031313030303031303131303030313130313131303130313031313031313030D4
:203CE0003031313031303031303131313030313130303130303030303031313031313030B6
:203D0000303131303130303130313130303031303031313030313031303131313030313094
:203D2000303131303131313130303130303030303031313030303031303131313031303174
:203D4000303131303031313130313131303130313031313030313031303031303131303052
:203D6000303031303030303030313130313131303031313031313131303131303131313032
:203D8000303031303030303030313131303131303031313130313031303131303131303014
:203DA0003031313130303030303131313031303130313131303130303031313030303031F4
:203DC0003031313130313030303131303031303130303130303030303031313031313031D5
:203DE0003031313031303031303031303030303030313130303030313031313030303131B7
:203E000030313130303031313031313130313031303131303131303130313131303031318F
:203E2000303131303030303130313130313131303030313030303030303131303031303175
:203E4000303131313031303130303130313131303030313030303030303130313030313154
:203E6000303131313031303130313131303031313031313130303030303131303031303131
:203E8000303131303131313030313130303130303031313031303031303131313030313111
:203EA0003031313130303131303131303031303130303130303030303031313030313030F5
:203EC0003031313030303031303131313030303030313130313030313031313030303130D5
:203EE0003031313130313031303131313030313130303130303030303031313030313030B4
:203F0000303131303130303130313130303030313031313031313031303031303030303094
:203F2000303131303030303130313130303031313030313030303030303131303030303176
:203F400030313131303130313031313030313131303131313031303130313130303130314E
:203F6000303031303030303030313131303030303031313031313030303131303030303136
:203F8000303131303030313130313130303130313031313130303130303131303030303112
:203FA0003031313130313030303031303131303030303130303030303031313130313031F4
:203FC0003031313130313030303031303030303030313130303131303031313030313031D4
:203FE0003031313130303130303131303131303130313130303130313031313031313130AF
:20400000303131313031303030313131303130313031313031313031303031303030303091
:20402000303131303031303130313131303031313031313130313030303031303030303072
:2040400030313130303031313031313031313131303131303131313030313131303031314C
:20406000303131303031303130313131303030313031313130313031303131303030303130
:20408000303131313031303030303130313131303030313030303030303130313030303015
:2040A0003031313130303130303131303131313130313130313030313031313031313130ED
:2040C0003030313030303030303131313030313130313130303130313031313030313030D3
:2040E0003030313030303030303131313031303030313131303130313031313130303130B2
:20410000303131313030303030313130313030313031313130303131303031303030303092
:2041200030313130303130313031313031313030303131303130303130313131303130306F
:20414000303031303131313030303130303030303031303031303031303131303131313052
:20416000303031303030303030313130313030313031313031313130303131313031303031
:2041800030313130303130313031313130303130303131303031303030313131303130310F
:2041A0003031313031313031303031303030303030313131303031313031313031303031F0
:2041C0003031313130313030303031303030303030313130303030313031313031313031D2
:2041E0003031313030313031303131313031303030303130303030303031313031313130B1
:2042000030313131303130313031313031313030303131303131303030313130303030318E
:20422000303031303030303030313130303030313031313130313030303031303030303075
:2042400030313130303031313031313130313031303131313030313030313131303031314C
:2042600030313131303130313031313130303131303031303131313030303130303030302F
:20428000303130313030303030313130303130313031313031313030303131303131303010
:2042A0003031313030313031303131303131313030313131303130303031313030313031ED
:2042C0003031313130303131303131313030303130313131303130313031313030313031CC
:2042E0003030313030303030303131303131303130313130303030313031313031313030B1
:2043000030313130303130313031313130303131303131313031303130313130303030318C
:20432000303131303031303030313130303030313030313030303030303131303131303072
:2043400030313130303130313031313030303131303131313031303030313131303130314C
:2043600030313131303031313030313030303030303131303131303030313130313030312F
:2043800030313130303131313031313130313031303131303131303030313130303030310C
:2043A0003030313031313030303031303030303030313130313131303031313030313031F0
:2043C0003031313030303131303031303030303030313130313130303031313031313131CE
:2043E0003031313030303130303131303131313130313131303031303031313130313030AC
:2044000030313130313030313031313130303131303031303030303030313130313130308E
:2044200030313130303130313031313031313131303031303030303030313130303031316D
:20444000303131313031303130313131303031303031313130303131303131313031303149
:2044600030313131303031313030313030303030303131313031303130313131303130302D
:2044800030303130313131303030303031303130303130303131303130313130303030310F
:2044A0003031313030313031303131303030313130313130303130313031313031313130EB
:2044C0003031313030303031303131313030313130303130303030303031313130313130CE
:2044E0003031313031313131303131303131303030313131303130313031313130313030A9
:20450000303131313030303030313130303030313031313130313030303031303030303090
:2045200030313131303130303031313031303031303131303131313030313130303031316A
:2045400030313130313030313031313030313030303131313031303130313130313131304A
:2045600030313131303130303030313030303030303131303030303130313131303031302F
:2045800030313130303031313031313130313031303031303131303030303130303030300E
:2045A0003031313030313031303131313031303130303130303030303031313130313130EC
:2045C0003031313031303031303131313031313030313130303130313031313130303130CA
:2045E0003031313130303130303131303030303130303130303030303031313031313030AF
:20460000303131303031303130313130303031313031313130313030303131313031303189
:2046200030313131303031313030313030303030303131303031303130313130303131306C
:2046400030313130303131303031313031303031303131303030313130313130313030314A
:2046600030313131303130303031313130313031303131313030313030303130303030302C
:2046800030313130303130303031313031303031303131303030313130313131303130300B
:2046A0003031313130313031303131303131303130303130313131303030313030303030EB
:2046C0003031303031313031303131303030303130313130303130313031313030303131CB
:2046E0003031313030313031303131303131313030313130303030313031313130303131A9
:2047000030303130303030303031313030303031303131303030313130313130303031318D
:20472000303131313031303130313130313130313031313130303131303131303030303167
:2047400030313130313131303030313030303030303131313031303030313130313030314B
:20476000303131303131313030313130303031313031313031303031303131303031303029
:2047800030313131303130313031313031313130303131313031303030303130303030300A
:2047A0003031313130303031303131313031303130313130303030313031313031313031E8
:2047C0003030313031313030303031303030303030313130303130313031313130313031CC
:2047E0003030313030303030303131313031303030313130303130313031313031313031AB
:2048000030313131303030303031313130313031303131313030313130303130303030308A
:20482000303131303031303130313131303031303031313031313131303131313030313165
:2048400030303130303030303031313031313031303131303030303130313131303130304B
:2048600030313131303130303031313031303031303131313030313130303130303030302A
:2048800030313130313030313031313031313130303031303131313030303130303030300A
:2048A0003031303130303131303131313031303130313131303031313031313130303030E7
:2048C0003031313030313031303131303131313030313130303130303031313031303031C8
:2048E0003031313130303131303131313030313130313130303130313030313030303030A9
:20490000303131313031303030313130303130313031313031313030303131303131303087
:20492000303131313031303130313131303031313030313030303030303131303131313067
:20494000303131303130303130313131303031313031313031303031303031303131303047
:2049600030303130303030303031313031303030303131303031303130313130313131302A
:20498000303131303031303030313131303031303031313030313031303131313030313008
:2049A0003031313031303031303131313031303030303130303030303031313030313031EA
:2049C0003031313130313030303031303030303030313131303130303031313031313131C8
:2049E0003031313130303130303131313031303030313130313131313031313130303130A5
:204A0000303031303030303030313131303131303031313030313031303131303131303088
:204A2000303031303131303030303130303030303031313031313031303131303131313167
:204A4000303131303131303030313130313130303031313031303031303131313030313145
:204A6000303031303030303030313131303131303031313031303031303131313031313027
:204A8000303131303031303130313131303031303031313130303130303131303030303107
:204AA0003030313030303030303131313031303030313130313131313031313130303130E7
:204AC0003031313130313030303131303131313130313131303031303030313031313130C4
:204AE0003030313030303030303130303131303130313130303030313031313030313031AA
:204B0000303131303030313130313130303130313031313031313130303131303030303185
:204B2000303131313030313130303130303030303031313031313130303131303031303166
:204B4000303131303030313130303130303030303031313031313030303131303031303148
:204B600030313130313131313030313030303030303131303030303130303130303030302A
:204B8000303131313030313030313130313030313031313130303131303131313031303103
:204BA0003031313130303131303031303030303030313131303130303031313031303031E7
:204BC0003031313031313130303131303030313130313130313030313031313030313030C5
:204BE0003031313130313031303131303131313030313131303130303030313030303030A6
:204C0000303131303131303130313130313131313031313031313030303131303031303181
:204C2000303131313030313130313131303130303031313031303031303131303031303163
:204C4000303031303131313030303130303030303031303031313031303131303030303148
:204C6000303131313031303130313131303031303031313031303031303131313030313122
:204C8000303031303030303030313131303131303031313030313031303131303131313005
:204CA0003031313030313031303131303131313030313130303030313031313130313030E4
:204CC0003031313031303031303131313030313130303130303030303031313130313130C5
:204CE0003031313031313131303131303131303030313131303130313031313130313030A1
:204D0000303131313030303030313130303030313031313130313030303031303030303088
:204D2000303131303031303030313130313030313031313030303031303131303131303164
:204D4000303031303131303030303130303030303031313030303031303131313031303048
:204D6000303031303030303030313130313130313031313030303031303131313130303026
:204D8000303131303130303130313130313130313031313130313031303131313030313100
:204DA0003030313030303030303131303131313130313131303031303031313030303131E4
:204DC0003031313031303031303031303131313030303130303030303031303031313130C6
:204DE0003031313130313031303131303131313030313130303031313030313030303030A4
:204E0000303131303031313030313130303130313031313031313030303131303130303182
:204E2000303131313030313130303130303030303031313130313030303131313031303163
:204E4000303131313030313030313131303030303031313031303031303131313030313142
:204E6000303031303131303030303130303030303031313030303131303131313031303125
:204E80003031313130303130303131313030313130313131303130313031313130303131FF
:204EA0003030313030303030303131313030313130313130313030313031313130313030E4
:204EC0003030313030303030303131303030303130313130313130313031313030313031C5
:204EE0003031313130313030303031303030303030313130303030313031313030303131A6
:204F000030313130303031313031313130313031303131303131303130313131303031317E
:204F2000303131303030303130313130313131303030313030303030303131303031303164
:204F4000303131313031303030303130313130303030313030303030303131303131303144
:204F6000303131303030303130313131313030303031313031303031303131303131303121
:204F8000303131313031303130313131303031313030313030303030303131303030303103
:204FA0003031313130313030303031303030303030313131303031313031313030303031E4
:204FC0003031313130303030303131303130303130313130303130313031313031313130C1
:204FE0003030313031313130303031303030303030313031303030303031313130303130A6
:20500000303131303030303130313130303130313031313130303131303131303031303180
:20502000303131303131313030313131303130303030313030303030303131313030313161
:20504000303131303130303130313131303130303030313030303030303131303030303144
:20506000303131303131303130313130303130313031313130313030303031303030303022
:205080003031313031303130303131313031303130313131303031313031313130313030FE
:2050A0003031313031313131303031303030303030313130303130313031313030313131E0
:2050C0003031313030313031303131313031303030303130303030303031313031313030C3
:2050E00030313130313030313031313030313131303131313031303130313130313130309E
:20510000303131303030303130303130303030303031313130303131303131303131313180
:20512000303131303031303030313130303030313031313031313030303131303031303161
:20514000303131313030313130303130303030303031313130303131303131303030313140
:2051600030313130303130313031313031313030303131303031303130313131303031301F
:205180003031313031303031303131313030313130313131303030313031313130313031FD
:2051A0003031313030313031303031303131313030303130303030303031303031303031E3
:2051C0003031313031313130303131313031303030313130303130313031313030313131BD
:2051E0003031313030313031303131313030313030303130303030303031313030313031A2
:20520000303131313031303030303130303030303031313030313031303131303131303081
:20522000303131303130303130313131303130303030313030303030303131313030313160
:2052400030313130303130313031313031313031303031303131313030303030313031303F
:2052600030313031303031313031313130313031303131313030313130313131303030301D
:205280003031313030313031303131303131313030313130303130303031313031303031FE
:2052A0003031313130303131303131313030313130313130303130313030313030303030DF
:2052C0003031313031313130303131303031303130313130303031313030313030303030C0
:2052E00030313130303031313031313130313031303131313030313030313131303031319C
:2053000030313131303130313031313130303131303031303030303030313130313130307E
:2053200030313130313030313031313030303130303131303031303130313131303031305E
:2053400030313130313131313030313031313130303031303030303030313030313030313F
:2053600030313130313131303031313130313030303131303031303130313130303131311B
:205380003031313030313031303131313030313030303130303030303031313130313130FF
:2053A0003031313130313031303131303131303030313131303030303031313130313031DC
:2053C0003031313130313030303131303030303130313131303130303031313030313031BE
:2053E0003030313031313030303031303030303030313130303130313031313131303030A1
:20540000303031303030303030313130313030313031313031313130303031303030303081
:2054200030313130313030303031313030313031303131303131313030313130303130305D
:2054400030313131303031303031313030313031303131313030313030313130313030313C
:2054600030313131303130303030313030303030303131313031303030313130313030311F
:205480003031313031313130303131303030313130313130313030313031313030313030FC
:2054A0003031313130313031303131303131313030313131303130303030313031313030DB
:2054C0003030313030303030303131303131313030313130313030313031313130303131BD
:2054E00030313130313030313030313030303030303131313030303130313131303130319E
:2055000030313130303030313031313031313031303031303030303030313131303030307F
:2055200030313130303130313031313031313030303131303131303030313130303130315B
:20554000303131303131313030313131303130303031313030313031303131313030313139
:2055600030313131303030313031313130313031303131303031303130303130303030301D
:205580003031313031313031303131303130303130303130313130303030313030303030FE
:2055A0003031313130303131303131303130303130313131303130303030313030303030DD
:2055C0003031313030303031303131303131303130313130303130313031313130313030BB
:2055E00030303130303030303031313031303031303131303131313030313131303130309D
:2056000030313130303130313031313130303130303131303031303030313131303130317A
:2056200030313130313130313030313030303030303131313030313130313130303030315C
:2056400030313131303030303031313031303031303131303031303130313130313131303A
:2056600030303130303030303031313030303031303131303131313030313131303130301D
:205680003031313030313031303031303030303030313130303030313031313030303131FE
:2056A0003030313030303030303131303131303030313130313131313031313130303130DB
:2056C0003031313030313031303131303131303130303130313131303030313030303030BC
:2056E00030313030303130313031313130313030303131303130303130313130303030319C
:2057000030313130313130313030313030303030303131303031303030313130303030317D
:2057200030313131303030303031313031303031303131303030313030313131303130315A
:2057400030313131303031313030313030303030303131313031313030313130313030313A
:20576000303131313031313030313130303130313031313130303130303131313030313018
:205780003031313030303031303031303030303030313130303130313031313031313130FC
:2057A0003031313031303031303131303131303130303130313130303030313030303030DC
:2057C0003031313031303031303131303031303030303130303030303031313130303030BE
:2057E000303131303131313130313131303031303031313130313030303131303030303198
:2058000030303130303030303031313030313031303131303131313030313130313030317A
:20582000303131303131303130303130303030303031313130303030303131303131313159
:20584000303131313030313130313131303130313031313030313031303131313030313036
:2058600030313130303130313030313030303030303131303031303130313130303131311A
:205880003031313030313031303131313031303030303130313131303030313030303030FB
:2058A0003031303030303131303131313031303130313131303031303031313030303031D9
:2058C0003031313030303130303131303130303130313131303130303031313130313031B8
:2058E00030313131303031303030313030303030303131313030303030313131303031309C
:20590000303131303031303130313131303130303031313031303031303131313031303176
:20592000303131303131303130303130303030303031313130303030303131303131313158
:20594000303131313030313030313131303130303031313130313030303131303130303137
:20596000303131313031303030313130313131313031313130303130303031303030303018
:205980003031313031313031303131303030303130313130313130303031313030313031F7
:2059A0003031313130303131303131313031303130313130303030313031313030313030D7
:2059C0003031313030303031303031303131313030303130303030303031303030313031BC
:2059E000303131313031303030313130313030313031313030303031303131303131303197
:205A0000303031303030303030313130303031313031313031313131303131303131303176
:205A2000303131303131303130313130313131313031313030313030303131303131313152
:205A400030303130313130303030313030303030303131313031303030313130303130313A
:205A6000303131303131303030313130313130303031313130313031303131313030313114
:205A80003030313030303030303131303031303130313131303130313030313030303030FB
:205AA0003031313030303031303131303131303030313130313030313031313130303031D7
:205AC0003031313130313031303131303030303130313130313130313030313030303030B8
:205AE000303131303131303130313130303030313031313130313030303131313031303096
:205B0000303131303130303130313131303031313030313031313030303031303030303078
:205B2000303131303131303030313130313030313031313030313131303131313031303153
:205B4000303131303131303030313130303030313030313030303030303131313030313138
:205B6000303131303031303130313130313130313030313030303030303131303031303018
:205B80003031313031303031303131303031313130313130313131303031313031303031F3
:205BA0003031313130303131303131313030313130313130313030313031313031313031D2
:205BC0003030313030303030303131303131313030313130313030313031313130303131B6
:205BE00030313130313130303030313031313030303031303030303030313130303030319A
:205C0000303031303030303030313131303130303031313031303031303131303131313076
:205C2000303131303030313130313130313030313031313030313030303131313031303154
:205C4000303131303131313030313131303130303030313030303030303131313031303036
:205C6000303131313031303130313131303031303031313130303030303131303130303114
:205C80003031313130303131303031303030303030313130313131313031313130303130F4
:205CA0003031313030303131303131303130303130303130303030303031313130313130D6
:205CC0003031313030313031303131303131303030303130303030303031313030313030B8
:205CE000303131303130303130313130303030313031313031313031303031303131313094
:205D0000303031303030303030313030313131303031313130313031303131303131303075
:205D2000303131303131303030313130303030313031313031313031303031303030303056
:205D4000303131313030303030313130313131313031313130303130303131313031303032
:205D6000303131313031303030313130313030313031313130313030303131303131313111
:205D80003031313130303130303031303030303030313131303131303031313031313131F3
:205DA0003031313031313030303131313031303130313131303130303031313130303030D3
:205DC0003031313030303031303131313031303030303130303030303031313030313030B8
:205DE000303131313031303130313130313030313030313031313030303031303030303096
:205E0000303131303031303130313131303130303030313030303030303131313030303076
:205E2000303131303131313130313131303031303031313130313030303131303030303151
:205E4000303031303030303030313130303130303031313031303031303131303030303137
:205E6000303131303131303130303130303030303031313031303031303131303030303115
:205E80003031313030303131303131313031303130313130313130303031313031303031F1
:205EA0003031313130303131303031303030303030313130313030313031313030313030D5
:205EC0003030313031313130303031303030303030313030303030313031313031313030B7
:205EE000303131303130303130313131303030313031313130313031303131303030303192
:205F0000303131303131303130303130303030303031313030313031303131303031313172
:205F2000303131303031303130313131303130303030313030303030303131303131303054
:205F400030313131303130313031313030303131303131313031303030313131303130312F
:205F6000303131313030313130303130303030303031313031313131303131313030313011
:205F80003031313030303131303131303130303130303130313130303030313030303030F5
:205FA0003031313030313031303131303031313130313130303130313031313130313030D0
:205FC0003030313030303030303131303031313030313130303030313031313030303131B5
:205FE000303131303130303130313130313130303031313031303031303131313030313190
:20600000303131303130303130313131303031313030313030303030303131313030313171
:20602000303131303031303130313130313130313030313031313130303031303030303052
:20604000303130303031303030313131303130313031313031303031303131313030313130
:20606000303031303030303030313130303131303031313030313031303131303131303013
:206080003031313031303031303131313030313130303130303030303031313030313030F3
:2060A0003031313130313031303131303130303130303130313130303030313030303030D3
:2060C0003031313130303030303131303131303030313130303030313031313030303131B2
:2060E000303131303031303130313131303031303031313030303031303131313031303091
:20610000303031303030303030313130303130313031313130313031303031303030303074
:2061200030313130303031313031313031313131303131303131303130313130313130314B
:2061400030313130313131313031313030313030303131303131313130303130303030302F
:20616000303131313030313130313130313030313031313130313030303031303030303011
:206180003031313030303031303131303131303130313130303130313031313130313030EF
:2061A0003030313031313030303031303030303030313130313130313031313031313131D0
:2061C0003031313031313030303131303131303030313130313030313031313130303131AE
:2061E000303031303030303030313131303131303031313030313031303131303131303091
:20620000303031303030303030313130313130303031313030303031303131303030313172
:2062200030313131303130313031313130303131303031303131313030303130303030304F
:20624000303130303131313030313130303030313031313031313031303031303030303031
:20626000303131313030303030313130313130303031313030303031303131303030313110
:206280003031313030313031303131313030313030313130303030313031313130313030EF
:2062A0003030313030303030303131303131313130313131303031303031313030303131CF
:2062C0003031313031303031303031303030303030313130313130313031313030303031B1
:2062E00030313131313030303031313031303031303131303131303130313131303130318C
:2063000030313131303031313030313030303030303131303131313030313130313030316E
:20632000303131303030313030313130313030303030313030303030303131303031303053
:2063400030313130313030313031313030313131303131303131313030313130313030312B
:2063600030313131303031313031313130303131303131303130303130313130313130310A
:206380003030313030303030303131313030313130313130303030313031313030313131EF
:2063A0003031313031303031303131313031303030313131303130303031313031303031CD
:2063C0003031313130303131303031303131313030303130303030303031303031313130AF
:2063E00030313130303030313031313031313031303031303030303030313131303031318F
:2064000030313130303130313031313030313030303031303030303030313131303031316F
:2064200030313130303130313031313031313031303031303030303030313130313030314E
:2064400030313130303130303030313030303030303131303131303030313130313131312E
:2064600030313131303031303031313030313031303131303131303130303130303030300E
:206480003031313030313130303131303130303130313130313131303031313031303031EB
:2064A0003031313030303130303131313031303130313131303031313030313030303030CE
:2064C0003031313130313130303131303131313130313130313130303031313130313031A8
:2064E00030313131303130303031313130303030303131303030303130313131303130308E
:2065000030303130303030303031313130313030303131303130303130313130313131306D
:2065200030313130303031313031313031303031303131303031303030313131303130314B
:2065400030313130313131303031313130313030303031303030303030313130303130312D
:2065600030313131303130303030313030303030303131303131303030313130313030310E
:206580003031313030313131303131313031303130313130313130303031313030303031EA
:2065A0003030313031313130303031303030303030313030303030313031313030313031D0
:2065C0003031313031313130303131303031303130313130303030313031313031313130AA
:2065E00030303130303030303031313031313031303131303030303130313131313030308E
:20660000303131303130303130313130313130313031313130313031303131313030313167
:2066200030303130303030303031313130303131303131303130303130313131303130304C
:2066400030303130303030303031313030303031303131303131303130313130303130312D
:2066600030313131303130303030313030303030303131303131303030313130303130310D
:206680003031313031313131303031303030303030313130313131303031313030313031EA
:2066A0003031313030303131303031303030303030313130313131313031313130303130CB
:2066C0003031313031313130303131303030303130313131303031303031313030313031AA
:2066E00030303130313131303030313030303030303130313030303030313131303031308F
:20670000303131303030303130313130303130313031313130303131303131303031303169
:2067200030313130313131303031313130313030303031303030303030313131303031314A
:20674000303131313031303130313131303031313031313030303131303131303130303127
:2067600030313131303030303031313031303031303131313031303030303130303030300D
:206780003031313030313031303131303131313030313130313030313031313031313031E7
:2067A0003030313030303030303131303131313030313130313131313031313031313130C8
:2067C0003030313030303030303131303131303030313130303030313031313030303131AD
:2067E000303131313031303130313131303031313030313030303030303131313030313189
:20680000303131313031303130313131303031313031313030303131303131303130303166
:2068200030313131303030303031313031303031303131313031303030303130313130304A
:20684000303031303030303030313130313131303031313031313131303131303131313027
:2068600030303130303030303031313031313030303131303030303130313130313131310A
:206880003031313130303130303131303031303130313130303130313031313130313030E8
:2068A0003030313030303030303131303031313030313130303130313031313031313030CB
:2068C0003031313031303031303131313030313130303130303030303031313030313031AA
:2068E000303131313031303130313130313030313031313130303131303131303131303185
:20690000303131303131313130313130303130303030313031313130303031303030303069
:20692000303130303131313030313131303130313031313031313130303131303030313145
